{
  "contractName": "Authentication",
  "abi": [
    {
      "constant": false,
      "inputs": [],
      "name": "kill",
      "outputs": [],
      "payable": false,
      "stateMutability": "nonpayable",
      "type": "function"
    },
    {
      "constant": true,
      "inputs": [],
      "name": "owner",
      "outputs": [
        {
          "internalType": "address",
          "name": "",
          "type": "address"
        }
      ],
      "payable": false,
      "stateMutability": "view",
      "type": "function"
    },
    {
      "constant": false,
      "inputs": [
        {
          "internalType": "address",
          "name": "newOwner",
          "type": "address"
        }
      ],
      "name": "transferOwnership",
      "outputs": [],
      "payable": false,
      "stateMutability": "nonpayable",
      "type": "function"
    },
    {
      "constant": true,
      "inputs": [
        {
          "internalType": "address",
          "name": "",
          "type": "address"
        }
      ],
      "name": "users",
      "outputs": [
        {
          "internalType": "bytes32",
          "name": "name",
          "type": "bytes32"
        }
      ],
      "payable": false,
      "stateMutability": "view",
      "type": "function"
    },
    {
      "constant": true,
      "inputs": [],
      "name": "login",
      "outputs": [
        {
          "internalType": "bytes32",
          "name": "",
          "type": "bytes32"
        }
      ],
      "payable": false,
      "stateMutability": "view",
      "type": "function"
    },
    {
      "constant": false,
      "inputs": [
        {
          "internalType": "bytes32",
          "name": "name",
          "type": "bytes32"
        }
      ],
      "name": "signup",
      "outputs": [
        {
          "internalType": "bytes32",
          "name": "",
          "type": "bytes32"
        }
      ],
      "payable": true,
      "stateMutability": "payable",
      "type": "function"
    },
    {
      "constant": false,
      "inputs": [
        {
          "internalType": "bytes32",
          "name": "name",
          "type": "bytes32"
        }
      ],
      "name": "update",
      "outputs": [
        {
          "internalType": "bytes32",
          "name": "",
          "type": "bytes32"
        }
      ],
      "payable": true,
      "stateMutability": "payable",
      "type": "function"
    }
  ],
  "bytecode": "0x6080604052336000806101000a81548173ffffffffffffffffffffffffffffffffffffffff021916908373ffffffffffffffffffffffffffffffffffffffff160217905550610741806100536000396000f3fe6080604052600436106100705760003560e01c80638da5cb5b1161004e5780638da5cb5b14610110578063a87430ba14610167578063b34e97e8146101cc578063f2fde38b146101f757610070565b806341c0e1b5146100755780635c1397de1461008c5780638b147245146100ce575b600080fd5b34801561008157600080fd5b5061008a610248565b005b6100b8600480360360208110156100a257600080fd5b81019080803590602001909291905050506102d9565b6040518082815260200191505060405180910390f35b6100fa600480360360208110156100e457600080fd5b8101908080359060200190929190505050610416565b6040518082815260200191505060405180910390f35b34801561011c57600080fd5b5061012561055f565b604051808273ffffffffffffffffffffffffffffffffffffffff1673ffffffffffffffffffffffffffffffffffffffff16815260200191505060405180910390f35b34801561017357600080fd5b506101b66004803603602081101561018a57600080fd5b81019080803573ffffffffffffffffffffffffffffffffffffffff169060200190929190505050610584565b6040518082815260200191505060405180910390f35b3480156101d857600080fd5b506101e16105a2565b6040518082815260200191505060405180910390f35b34801561020357600080fd5b506102466004803603602081101561021a57600080fd5b81019080803573ffffffffffffffffffffffffffffffffffffffff16906020019092919050505061063e565b005b6000809054906101000a900473ffffffffffffffffffffffffffffffffffffffff1673ffffffffffffffffffffffffffffffffffffffff163373ffffffffffffffffffffffffffffffffffffffff1614156102d7576000809054906101000a900473ffffffffffffffffffffffffffffffffffffffff1673ffffffffffffffffffffffffffffffffffffffff16ff5b565b6000816000801b8114156102ec57600080fd5b6000801b600160003373ffffffffffffffffffffffffffffffffffffffff1673ffffffffffffffffffffffffffffffffffffffff1681526020019081526020016000206000015414156103ca5782600160003373ffffffffffffffffffffffffffffffffffffffff1673ffffffffffffffffffffffffffffffffffffffff16815260200190815260200160002060000181905550600160003373ffffffffffffffffffffffffffffffffffffffff1673ffffffffffffffffffffffffffffffffffffffff168152602001908152602001600020600001549150610410565b600160003373ffffffffffffffffffffffffffffffffffffffff1673ffffffffffffffffffffffffffffffffffffffff1681526020019081526020016000206000015491505b50919050565b6000816000801b81141561042957600080fd5b6000801b600160003373ffffffffffffffffffffffffffffffffffffffff1673ffffffffffffffffffffffffffffffffffffffff16815260200190815260200160002060000154141561047b57600080fd5b6000801b600160003373ffffffffffffffffffffffffffffffffffffffff1673ffffffffffffffffffffffffffffffffffffffff16815260200190815260200160002060000154146105585782600160003373ffffffffffffffffffffffffffffffffffffffff1673ffffffffffffffffffffffffffffffffffffffff16815260200190815260200160002060000181905550600160003373ffffffffffffffffffffffffffffffffffffffff1673ffffffffffffffffffffffffffffffffffffffff168152602001908152602001600020600001549150610559565b5b50919050565b6000809054906101000a900473ffffffffffffffffffffffffffffffffffffffff1681565b60016020528060005260406000206000915090508060000154905081565b60008060001b600160003373ffffffffffffffffffffffffffffffffffffffff1673ffffffffffffffffffffffffffffffffffffffff1681526020019081526020016000206000015414156105f657600080fd5b600160003373ffffffffffffffffffffffffffffffffffffffff1673ffffffffffffffffffffffffffffffffffffffff16815260200190815260200160002060000154905090565b6000809054906101000a900473ffffffffffffffffffffffffffffffffffffffff1673ffffffffffffffffffffffffffffffffffffffff163373ffffffffffffffffffffffffffffffffffffffff16141561070957600073ffffffffffffffffffffffffffffffffffffffff168173ffffffffffffffffffffffffffffffffffffffff161461070857806000806101000a81548173ffffffffffffffffffffffffffffffffffffffff021916908373ffffffffffffffffffffffffffffffffffffffff1602179055505b5b5056fea265627a7a72315820068b852b6b7e4516d9397aed53fa115881d100250e7964ce688fe1dea079f62864736f6c63430005100032",
  "source": "pragma solidity ^0.5.16;\n\nimport './zeppelin/lifecycle/Killable.sol';\n\ncontract Authentication is Killable {\n  struct User {\n    bytes32 name;\n  }\n\n  mapping (address => User) public users;\n\n  uint private id; // Stores user id temporarily\n\n  modifier onlyExistingUser {\n    // Check if user exists or terminate\n\n    require(!(users[msg.sender].name == 0x0));\n    _;\n  }\n\n  modifier onlyValidName(bytes32 name) {\n    // Only valid names allowed\n\n    require(!(name == 0x0));\n    _;\n  }\n\n  function login() view\n  public\n  onlyExistingUser\n  returns (bytes32) {\n    return (users[msg.sender].name);\n  }\n\n  function signup(bytes32 name)\n  public\n  payable\n  onlyValidName(name)\n  returns (bytes32) {\n    // Check if user exists.\n    // If yes, return user name.\n    // If no, check if name was sent.\n    // If yes, create and return user.\n\n    if (users[msg.sender].name == 0x0)\n    {\n        users[msg.sender].name = name;\n\n        return (users[msg.sender].name);\n    }\n\n    return (users[msg.sender].name);\n  }\n\n  function update(bytes32 name)\n  public\n  payable\n  onlyValidName(name)\n  onlyExistingUser\n  returns (bytes32) {\n    // Update user name.\n\n    if (users[msg.sender].name != 0x0)\n    {\n        users[msg.sender].name = name;\n\n        return (users[msg.sender].name);\n    }\n  }\n}\n",
  "sourcePath": "/home/swarnim/blockchain/CryptoRyder/contracts/Authentication.sol",
  "compiler": {
    "name": "solc",
    "version": "0.5.16+commit.9c3226ce.Emscripten.clang"
  },
  "schemaVersion": "3.4.6",
  "updatedAt": "2022-04-11T04:18:57.500Z",
  "networkType": "ethereum",
  "devdoc": {
    "methods": {}
  },
  "userdoc": {
    "methods": {}
  }
}