{
  "contractName": "Rideshare",
  "abi": [
    {
      "constant": false,
      "inputs": [],
      "name": "kill",
      "outputs": [],
      "payable": false,
      "stateMutability": "nonpayable",
      "type": "function"
    },
    {
      "constant": true,
      "inputs": [],
      "name": "owner",
      "outputs": [
        {
          "internalType": "address",
          "name": "",
          "type": "address"
        }
      ],
      "payable": false,
      "stateMutability": "view",
      "type": "function"
    },
    {
      "constant": true,
      "inputs": [],
      "name": "rideCount",
      "outputs": [
        {
          "internalType": "uint256",
          "name": "",
          "type": "uint256"
        }
      ],
      "payable": false,
      "stateMutability": "view",
      "type": "function"
    },
    {
      "constant": true,
      "inputs": [
        {
          "internalType": "uint256",
          "name": "",
          "type": "uint256"
        }
      ],
      "name": "rides",
      "outputs": [
        {
          "internalType": "address",
          "name": "driver",
          "type": "address"
        },
        {
          "internalType": "uint256",
          "name": "drivingCost",
          "type": "uint256"
        },
        {
          "internalType": "uint256",
          "name": "capacity",
          "type": "uint256"
        },
        {
          "internalType": "string",
          "name": "originAddress",
          "type": "string"
        },
        {
          "internalType": "string",
          "name": "destAddress",
          "type": "string"
        },
        {
          "internalType": "uint256",
          "name": "createdAt",
          "type": "uint256"
        },
        {
          "internalType": "uint256",
          "name": "confirmedAt",
          "type": "uint256"
        },
        {
          "internalType": "uint256",
          "name": "departAt",
          "type": "uint256"
        }
      ],
      "payable": false,
      "stateMutability": "view",
      "type": "function"
    },
    {
      "constant": false,
      "inputs": [
        {
          "internalType": "address",
          "name": "newOwner",
          "type": "address"
        }
      ],
      "name": "transferOwnership",
      "outputs": [],
      "payable": false,
      "stateMutability": "nonpayable",
      "type": "function"
    },
    {
      "constant": false,
      "inputs": [
        {
          "internalType": "uint256",
          "name": "_driverCost",
          "type": "uint256"
        },
        {
          "internalType": "uint256",
          "name": "_capacity",
          "type": "uint256"
        },
        {
          "internalType": "string",
          "name": "_originAddress",
          "type": "string"
        },
        {
          "internalType": "string",
          "name": "_destAddress",
          "type": "string"
        },
        {
          "internalType": "uint256",
          "name": "_confirmedAt",
          "type": "uint256"
        },
        {
          "internalType": "uint256",
          "name": "_departAt",
          "type": "uint256"
        }
      ],
      "name": "createRide",
      "outputs": [],
      "payable": false,
      "stateMutability": "nonpayable",
      "type": "function"
    },
    {
      "constant": false,
      "inputs": [
        {
          "internalType": "uint256",
          "name": "rideNumber",
          "type": "uint256"
        }
      ],
      "name": "joinRide",
      "outputs": [],
      "payable": true,
      "stateMutability": "payable",
      "type": "function"
    },
    {
      "constant": true,
      "inputs": [
        {
          "internalType": "uint256",
          "name": "rideNumber",
          "type": "uint256"
        }
      ],
      "name": "getPassengers",
      "outputs": [
        {
          "internalType": "address[]",
          "name": "",
          "type": "address[]"
        }
      ],
      "payable": false,
      "stateMutability": "view",
      "type": "function"
    },
    {
      "constant": true,
      "inputs": [
        {
          "internalType": "uint256",
          "name": "rideNumber",
          "type": "uint256"
        },
        {
          "internalType": "address",
          "name": "passenger",
          "type": "address"
        }
      ],
      "name": "getPassengerRideState",
      "outputs": [
        {
          "internalType": "string",
          "name": "",
          "type": "string"
        }
      ],
      "payable": false,
      "stateMutability": "view",
      "type": "function"
    },
    {
      "constant": true,
      "inputs": [
        {
          "internalType": "uint256",
          "name": "rideNumber",
          "type": "uint256"
        }
      ],
      "name": "getRide",
      "outputs": [
        {
          "internalType": "address",
          "name": "_driver",
          "type": "address"
        },
        {
          "internalType": "uint256",
          "name": "_drivingCost",
          "type": "uint256"
        },
        {
          "internalType": "uint256",
          "name": "_capacity",
          "type": "uint256"
        },
        {
          "internalType": "string",
          "name": "_originAddress",
          "type": "string"
        },
        {
          "internalType": "string",
          "name": "_destAddress",
          "type": "string"
        },
        {
          "internalType": "uint256",
          "name": "_createdAt",
          "type": "uint256"
        },
        {
          "internalType": "uint256",
          "name": "_confirmedAt",
          "type": "uint256"
        },
        {
          "internalType": "uint256",
          "name": "_departAt",
          "type": "uint256"
        }
      ],
      "payable": false,
      "stateMutability": "view",
      "type": "function"
    },
    {
      "constant": true,
      "inputs": [],
      "name": "getRideCount",
      "outputs": [
        {
          "internalType": "uint256",
          "name": "",
          "type": "uint256"
        }
      ],
      "payable": false,
      "stateMutability": "view",
      "type": "function"
    },
    {
      "constant": false,
      "inputs": [
        {
          "internalType": "uint256",
          "name": "rideNumber",
          "type": "uint256"
        },
        {
          "internalType": "address",
          "name": "passengerAcct",
          "type": "address"
        }
      ],
      "name": "passengerInRide",
      "outputs": [
        {
          "internalType": "bool",
          "name": "",
          "type": "bool"
        }
      ],
      "payable": false,
      "stateMutability": "nonpayable",
      "type": "function"
    },
    {
      "constant": false,
      "inputs": [
        {
          "internalType": "uint256",
          "name": "rideNumber",
          "type": "uint256"
        }
      ],
      "name": "cancelRide",
      "outputs": [],
      "payable": false,
      "stateMutability": "nonpayable",
      "type": "function"
    },
    {
      "constant": false,
      "inputs": [
        {
          "internalType": "uint256",
          "name": "rideNumber",
          "type": "uint256"
        }
      ],
      "name": "confirmDriverMet",
      "outputs": [],
      "payable": false,
      "stateMutability": "nonpayable",
      "type": "function"
    },
    {
      "constant": false,
      "inputs": [
        {
          "internalType": "uint256",
          "name": "rideNumber",
          "type": "uint256"
        },
        {
          "internalType": "address[]",
          "name": "passengerAddresses",
          "type": "address[]"
        }
      ],
      "name": "confirmPassengersMet",
      "outputs": [],
      "payable": false,
      "stateMutability": "nonpayable",
      "type": "function"
    },
    {
      "constant": true,
      "inputs": [
        {
          "internalType": "uint256",
          "name": "rideNumber",
          "type": "uint256"
        }
      ],
      "name": "enRouteList",
      "outputs": [
        {
          "internalType": "address[]",
          "name": "",
          "type": "address[]"
        }
      ],
      "payable": false,
      "stateMutability": "view",
      "type": "function"
    },
    {
      "constant": false,
      "inputs": [
        {
          "internalType": "uint256",
          "name": "rideNumber",
          "type": "uint256"
        }
      ],
      "name": "arrived",
      "outputs": [],
      "payable": false,
      "stateMutability": "nonpayable",
      "type": "function"
    }
  ],
  "bytecode": "0x6080604052336000806101000a81548173ffffffffffffffffffffffffffffffffffffffff021916908373ffffffffffffffffffffffffffffffffffffffff160217905550612362806100536000396000f3fe6080604052600436106100fe5760003560e01c80638da5cb5b11610095578063b47c188311610064578063b47c18831461093b578063c4ef54d614610966578063f2c46f72146109d9578063f2fde38b14610a14578063fd4e130514610a65576100fe565b80638da5cb5b1461064e5780638e90c5a2146106a5578063977c876e14610779578063a6f07b2914610900576100fe565b80635205f112116100d15780635205f112146102a75780636d4d31f21461041d5780637c7b0ff4146104ad5780638959a5d114610623576100fe565b806301f32206146101035780631124ab491461013157806321c1fc7f1461020057806341c0e1b514610290575b600080fd5b61012f6004803603602081101561011957600080fd5b8101908080359060200190929190505050610aa0565b005b34801561013d57600080fd5b506101fe6004803603604081101561015457600080fd5b81019080803590602001909291908035906020019064010000000081111561017b57600080fd5b82018360208201111561018d57600080fd5b803590602001918460208302840111640100000000831117156101af57600080fd5b919080806020026020016040519081016040528093929190818152602001838360200280828437600081840152601f19601f820116905080830192505050505050509192919290505050610bf4565b005b34801561020c57600080fd5b506102396004803603602081101561022357600080fd5b8101908080359060200190929190505050610feb565b6040518080602001828103825283818151815260200191508051906020019060200280838360005b8381101561027c578082015181840152602081019050610261565b505050509050019250505060405180910390f35b34801561029c57600080fd5b506102a561123d565b005b3480156102b357600080fd5b506102e0600480360360208110156102ca57600080fd5b81019080803590602001909291905050506112ce565b604051808973ffffffffffffffffffffffffffffffffffffffff1673ffffffffffffffffffffffffffffffffffffffff1681526020018881526020018781526020018060200180602001868152602001858152602001848152602001838103835288818151815260200191508051906020019080838360005b83811015610374578082015181840152602081019050610359565b50505050905090810190601f1680156103a15780820380516001836020036101000a031916815260200191505b50838103825287818151815260200191508051906020019080838360005b838110156103da5780820151818401526020810190506103bf565b50505050905090810190601f1680156104075780820380516001836020036101000a031916815260200191505b509a505050505050505050505060405180910390f35b34801561042957600080fd5b506104566004803603602081101561044057600080fd5b8101908080359060200190929190505050611473565b6040518080602001828103825283818151815260200191508051906020019060200280838360005b8381101561049957808201518184015260208101905061047e565b505050509050019250505060405180910390f35b3480156104b957600080fd5b506104e6600480360360208110156104d057600080fd5b810190808035906020019092919050505061151f565b604051808973ffffffffffffffffffffffffffffffffffffffff1673ffffffffffffffffffffffffffffffffffffffff1681526020018881526020018781526020018060200180602001868152602001858152602001848152602001838103835288818151815260200191508051906020019080838360005b8381101561057a57808201518184015260208101905061055f565b50505050905090810190601f1680156105a75780820380516001836020036101000a031916815260200191505b50838103825287818151815260200191508051906020019080838360005b838110156105e05780820151818401526020810190506105c5565b50505050905090810190601f16801561060d5780820380516001836020036101000a031916815260200191505b509a505050505050505050505060405180910390f35b34801561062f57600080fd5b506106386116e4565b6040518082815260200191505060405180910390f35b34801561065a57600080fd5b506106636116f1565b604051808273ffffffffffffffffffffffffffffffffffffffff1673ffffffffffffffffffffffffffffffffffffffff16815260200191505060405180910390f35b3480156106b157600080fd5b506106fe600480360360408110156106c857600080fd5b8101908080359060200190929190803573ffffffffffffffffffffffffffffffffffffffff169060200190929190505050611716565b6040518080602001828103825283818151815260200191508051906020019080838360005b8381101561073e578082015181840152602081019050610723565b50505050905090810190601f16801561076b5780820380516001836020036101000a031916815260200191505b509250505060405180910390f35b34801561078557600080fd5b506108fe600480360360c081101561079c57600080fd5b810190808035906020019092919080359060200190929190803590602001906401000000008111156107cd57600080fd5b8201836020820111156107df57600080fd5b8035906020019184600183028401116401000000008311171561080157600080fd5b91908080601f016020809104026020016040519081016040528093929190818152602001838380828437600081840152601f19601f8201169050808301925050505050505091929192908035906020019064010000000081111561086457600080fd5b82018360208201111561087657600080fd5b8035906020019184600183028401116401000000008311171561089857600080fd5b91908080601f016020809104026020016040519081016040528093929190818152602001838380828437600081840152601f19601f8201169050808301925050505050505091929192908035906020019092919080359060200190929190505050611817565b005b34801561090c57600080fd5b506109396004803603602081101561092357600080fd5b8101908080359060200190929190505050611979565b005b34801561094757600080fd5b50610950611bcb565b6040518082815260200191505060405180910390f35b34801561097257600080fd5b506109bf6004803603604081101561098957600080fd5b8101908080359060200190929190803573ffffffffffffffffffffffffffffffffffffffff169060200190929190505050611bd1565b604051808215151515815260200191505060405180910390f35b3480156109e557600080fd5b50610a12600480360360208110156109fc57600080fd5b8101908080359060200190929190505050611c98565b005b348015610a2057600080fd5b50610a6360048036036020811015610a3757600080fd5b81019080803573ffffffffffffffffffffffffffffffffffffffff169060200190929190505050611e0b565b005b348015610a7157600080fd5b50610a9e60048036036020811015610a8857600080fd5b8101908080359060200190929190505050611ed9565b005b600060018281548110610aaf57fe5b90600052602060002090600a0201905080600101543414610acf57600080fd5b60008160080160003373ffffffffffffffffffffffffffffffffffffffff1673ffffffffffffffffffffffffffffffffffffffff16815260200190815260200160002090503481600001819055506040518060400160405280600781526020017f696e697469616c00000000000000000000000000000000000000000000000000815250816001019080519060200190610b6a92919061213b565b506001808481548110610b7957fe5b90600052602060002090600a02016009013390806001815401808255809150509060018203906000526020600020016000909192909190916101000a81548173ffffffffffffffffffffffffffffffffffffffff021916908373ffffffffffffffffffffffffffffffffffffffff1602179055505050505050565b600060018381548110610c0357fe5b90600052602060002090600a020190508060000160009054906101000a900473ffffffffffffffffffffffffffffffffffffffff1673ffffffffffffffffffffffffffffffffffffffff163373ffffffffffffffffffffffffffffffffffffffff1614610c6f57600080fd5b60008090505b8251811015610fe5576060826008016000858481518110610c9257fe5b602002602001015173ffffffffffffffffffffffffffffffffffffffff1673ffffffffffffffffffffffffffffffffffffffff1681526020019081526020016000206001018054600181600116156101000203166002900480601f016020809104026020016040519081016040528092919081815260200182805460018160011615610100020316600290048015610d6b5780601f10610d4057610100808354040283529160200191610d6b565b820191906000526020600020905b815481529060010190602001808311610d4e57829003601f168201915b5050505050905060405160200180807f647269766572436f6e6669726d65640000000000000000000000000000000000815250600f01905060405160208183030381529060405280519060200120836008016000868581518110610dcb57fe5b602002602001015173ffffffffffffffffffffffffffffffffffffffff1673ffffffffffffffffffffffffffffffffffffffff1681526020019081526020016000206001016040516020018082805460018160011615610100020316600290048015610e6e5780601f10610e4c576101008083540402835291820191610e6e565b820191906000526020600020905b815481529060010190602001808311610e5a575b5050915050604051602081830303815290604052805190602001201415610f35576040518060400160405280600781526020017f656e526f75746500000000000000000000000000000000000000000000000000815250836008016000868581518110610ed757fe5b602002602001015173ffffffffffffffffffffffffffffffffffffffff1673ffffffffffffffffffffffffffffffffffffffff1681526020019081526020016000206001019080519060200190610f2f92919061213b565b50610fd7565b6040518060400160405280601381526020017f70617373656e67657273436f6e6669726d656400000000000000000000000000815250836008016000868581518110610f7d57fe5b602002602001015173ffffffffffffffffffffffffffffffffffffffff1673ffffffffffffffffffffffffffffffffffffffff1681526020019081526020016000206001019080519060200190610fd592919061213b565b505b508080600101915050610c75565b50505050565b6060600060018381548110610ffc57fe5b90600052602060002090600a020190506060600560405190808252806020026020018201604052801561103e5781602001602082028038833980820191505090505b509050600080905060008090505b83600901805490508110156112345760405160200180807f656e526f757465000000000000000000000000000000000000000000000000008152506007019050604051602081830303815290604052805190602001208460080160008660090184815481106110b757fe5b9060005260206000200160009054906101000a900473ffffffffffffffffffffffffffffffffffffffff1673ffffffffffffffffffffffffffffffffffffffff1673ffffffffffffffffffffffffffffffffffffffff168152602001908152602001600020600101604051602001808280546001816001161561010002031660029004801561117d5780601f1061115b57610100808354040283529182019161117d565b820191906000526020600020905b815481529060010190602001808311611169575b5050915050604051602081830303815290604052805190602001201415611227578360090181815481106111ad57fe5b9060005260206000200160009054906101000a900473ffffffffffffffffffffffffffffffffffffffff168383815181106111e457fe5b602002602001019073ffffffffffffffffffffffffffffffffffffffff16908173ffffffffffffffffffffffffffffffffffffffff168152505081806001019250505b808060010191505061104c565b50505050919050565b6000809054906101000a900473ffffffffffffffffffffffffffffffffffffffff1673ffffffffffffffffffffffffffffffffffffffff163373ffffffffffffffffffffffffffffffffffffffff1614156112cc576000809054906101000a900473ffffffffffffffffffffffffffffffffffffffff1673ffffffffffffffffffffffffffffffffffffffff16ff5b565b600181815481106112db57fe5b90600052602060002090600a02016000915090508060000160009054906101000a900473ffffffffffffffffffffffffffffffffffffffff1690806001015490806002015490806003018054600181600116156101000203166002900480601f0160208091040260200160405190810160405280929190818152602001828054600181600116156101000203166002900480156113b95780601f1061138e576101008083540402835291602001916113b9565b820191906000526020600020905b81548152906001019060200180831161139c57829003601f168201915b505050505090806004018054600181600116156101000203166002900480601f0160208091040260200160405190810160405280929190818152602001828054600181600116156101000203166002900480156114575780601f1061142c57610100808354040283529160200191611457565b820191906000526020600020905b81548152906001019060200180831161143a57829003601f168201915b5050505050908060050154908060060154908060070154905088565b60606001828154811061148257fe5b90600052602060002090600a020160090180548060200260200160405190810160405280929190818152602001828054801561151357602002820191906000526020600020905b8160009054906101000a900473ffffffffffffffffffffffffffffffffffffffff1673ffffffffffffffffffffffffffffffffffffffff16815260200190600101908083116114c9575b50505050509050919050565b600080600060608060008060008060018a8154811061153a57fe5b90600052602060002090600a020190508060000160009054906101000a900473ffffffffffffffffffffffffffffffffffffffff16816001015482600201548360030184600401856005015486600601548760070154848054600181600116156101000203166002900480601f0160208091040260200160405190810160405280929190818152602001828054600181600116156101000203166002900480156116255780601f106115fa57610100808354040283529160200191611625565b820191906000526020600020905b81548152906001019060200180831161160857829003601f168201915b50505050509450838054600181600116156101000203166002900480601f0160208091040260200160405190810160405280929190818152602001828054600181600116156101000203166002900480156116c15780601f10611696576101008083540402835291602001916116c1565b820191906000526020600020905b8154815290600101906020018083116116a457829003601f168201915b505050505093509850985098509850985098509850985050919395975091939597565b6000600180549050905090565b6000809054906101000a900473ffffffffffffffffffffffffffffffffffffffff1681565b60606001838154811061172557fe5b90600052602060002090600a020160080160008373ffffffffffffffffffffffffffffffffffffffff1673ffffffffffffffffffffffffffffffffffffffff1681526020019081526020016000206001018054600181600116156101000203166002900480601f01602080910402602001604051908101604052809291908181526020018280546001816001161561010002031660029004801561180a5780601f106117df5761010080835404028352916020019161180a565b820191906000526020600020905b8154815290600101906020018083116117ed57829003601f168201915b5050505050905092915050565b606060016040518061012001604052803373ffffffffffffffffffffffffffffffffffffffff168152602001898152602001888152602001878152602001868152602001428152602001858152602001848152602001838152509080600181540180825580915050906001820390600052602060002090600a02016000909192909190915060008201518160000160006101000a81548173ffffffffffffffffffffffffffffffffffffffff021916908373ffffffffffffffffffffffffffffffffffffffff160217905550602082015181600101556040820151816002015560608201518160030190805190602001906119139291906121bb565b5060808201518160040190805190602001906119309291906121bb565b5060a0820151816005015560c0820151816006015560e0820151816007015561010082015181600901908051906020019061196c92919061223b565b5050505050505050505050565b60006001828154811061198857fe5b90600052602060002090600a02019050806006015442106119a857600080fd5b8060000160009054906101000a900473ffffffffffffffffffffffffffffffffffffffff1673ffffffffffffffffffffffffffffffffffffffff163373ffffffffffffffffffffffffffffffffffffffff161415611b2b5760008090505b8160090180549050811015611b25576000826009018281548110611a2657fe5b9060005260206000200160009054906101000a900473ffffffffffffffffffffffffffffffffffffffff1690508073ffffffffffffffffffffffffffffffffffffffff166108fc846008016000866009018681548110611a8257fe5b9060005260206000200160009054906101000a900473ffffffffffffffffffffffffffffffffffffffff1673ffffffffffffffffffffffffffffffffffffffff1673ffffffffffffffffffffffffffffffffffffffff168152602001908152602001600020600001549081150290604051600060405180830381858888f19350505050158015611b16573d6000803e3d6000fd5b50508080600101915050611a06565b50611bc7565b611b358233611bd1565b15611bc6573373ffffffffffffffffffffffffffffffffffffffff166108fc8260080160003373ffffffffffffffffffffffffffffffffffffffff1673ffffffffffffffffffffffffffffffffffffffff168152602001908152602001600020600001549081150290604051600060405180830381858888f19350505050158015611bc4573d6000803e3d6000fd5b505b5b5050565b60025481565b60008060018481548110611be157fe5b90600052602060002090600a0201905060008090505b8160090180549050811015611c8b578373ffffffffffffffffffffffffffffffffffffffff16826009018281548110611c2c57fe5b9060005260206000200160009054906101000a900473ffffffffffffffffffffffffffffffffffffffff1673ffffffffffffffffffffffffffffffffffffffff161415611c7e57600192505050611c92565b8080600101915050611bf7565b5060009150505b92915050565b611ca28133611bd1565b611cab57600080fd5b600060018281548110611cba57fe5b90600052602060002090600a020190508060000160009054906101000a900473ffffffffffffffffffffffffffffffffffffffff1673ffffffffffffffffffffffffffffffffffffffff166108fc8260080160003373ffffffffffffffffffffffffffffffffffffffff1673ffffffffffffffffffffffffffffffffffffffff168152602001908152602001600020600001549081150290604051600060405180830381858888f19350505050158015611d78573d6000803e3d6000fd5b506040518060400160405280600a81526020017f636f6d706c6574696f6e000000000000000000000000000000000000000000008152508160080160003373ffffffffffffffffffffffffffffffffffffffff1673ffffffffffffffffffffffffffffffffffffffff1681526020019081526020016000206001019080519060200190611e0692919061213b565b505050565b6000809054906101000a900473ffffffffffffffffffffffffffffffffffffffff1673ffffffffffffffffffffffffffffffffffffffff163373ffffffffffffffffffffffffffffffffffffffff161415611ed657600073ffffffffffffffffffffffffffffffffffffffff168173ffffffffffffffffffffffffffffffffffffffff1614611ed557806000806101000a81548173ffffffffffffffffffffffffffffffffffffffff021916908373ffffffffffffffffffffffffffffffffffffffff1602179055505b5b50565b611ee38133611bd1565b611eec57600080fd5b600060018281548110611efb57fe5b90600052602060002090600a0201905060405160200180807f70617373656e67657273436f6e6669726d6564000000000000000000000000008152506013019050604051602081830303815290604052805190602001208160080160003373ffffffffffffffffffffffffffffffffffffffff1673ffffffffffffffffffffffffffffffffffffffff1681526020019081526020016000206001016040516020018082805460018160011615610100020316600290048015611ff45780601f10611fd2576101008083540402835291820191611ff4565b820191906000526020600020905b815481529060010190602001808311611fe0575b50509150506040516020818303038152906040528051906020012014156120a8576040518060400160405280600781526020017f656e526f757465000000000000000000000000000000000000000000000000008152508160080160003373ffffffffffffffffffffffffffffffffffffffff1673ffffffffffffffffffffffffffffffffffffffff16815260200190815260200160002060010190805190602001906120a292919061213b565b50612137565b6040518060400160405280600f81526020017f647269766572436f6e6669726d656400000000000000000000000000000000008152508160080160003373ffffffffffffffffffffffffffffffffffffffff1673ffffffffffffffffffffffffffffffffffffffff168152602001908152602001600020600101908051906020019061213592919061213b565b505b5050565b828054600181600116156101000203166002900490600052602060002090601f016020900481019282601f1061217c57805160ff19168380011785556121aa565b828001600101855582156121aa579182015b828111156121a957825182559160200191906001019061218e565b5b5090506121b791906122c5565b5090565b828054600181600116156101000203166002900490600052602060002090601f016020900481019282601f106121fc57805160ff191683800117855561222a565b8280016001018555821561222a579182015b8281111561222957825182559160200191906001019061220e565b5b50905061223791906122c5565b5090565b8280548282559060005260206000209081019282156122b4579160200282015b828111156122b35782518260006101000a81548173ffffffffffffffffffffffffffffffffffffffff021916908373ffffffffffffffffffffffffffffffffffffffff1602179055509160200191906001019061225b565b5b5090506122c191906122ea565b5090565b6122e791905b808211156122e35760008160009055506001016122cb565b5090565b90565b61232a91905b8082111561232657600081816101000a81549073ffffffffffffffffffffffffffffffffffffffff0219169055506001016122f0565b5090565b9056fea265627a7a723158209547a845f14bbf7cd8d7ef4ff5a291255b49a135a07f4ee3b9aedcba644988f264736f6c63430005100032",
  "source": "pragma solidity ^0.5.16;\n\nimport './zeppelin/lifecycle/Killable.sol';\n\ncontract Rideshare is Killable {\n  struct Passenger {\n    uint price;\n    string state; // initial, driverConfirmed, passengerConfirmed, enRoute, completion, canceled\n  }\n\n  struct Ride {\n    address driver;\n    uint drivingCost;\n    uint capacity;\n    string originAddress;\n    string destAddress;\n    uint createdAt;\n    uint confirmedAt;\n    uint departAt;\n    mapping (address => Passenger) passengers;\n    address[] passengerAccts;\n  }\n  \n  Ride[] public rides;\n  uint public rideCount;\n\n  mapping (address => uint) reputation;\n  \n  // for now, only drivers can create Rides\n  function createRide(uint _driverCost, uint _capacity, string memory _originAddress, string memory _destAddress, uint _confirmedAt, uint _departAt) public {\n    address[] memory _passengerAccts;\n    rides.push(Ride(msg.sender, _driverCost, _capacity, _originAddress, _destAddress, block.timestamp, _confirmedAt, _departAt, _passengerAccts));\n  }\n  \n  // called by passenger\n  function joinRide(uint rideNumber) public payable {\n    Ride storage curRide = rides[rideNumber];\n    require(msg.value == curRide.drivingCost);\n\n    Passenger storage passenger = curRide.passengers[msg.sender];    \n    \n    passenger.price = msg.value;\n    passenger.state = \"initial\";\n    \n    rides[rideNumber].passengerAccts.push(msg.sender) -1; //***\n  }\n  \n  function getPassengers(uint rideNumber) view public returns(address[]memory) {\n    return rides[rideNumber].passengerAccts;\n  }\n\n  function getPassengerRideState(uint rideNumber, address passenger) view public returns(string memory) {\n    return rides[rideNumber].passengers[passenger].state;\n  }\n\n  function getRide(uint rideNumber) public view returns (\n    address _driver,\n    uint _drivingCost,\n    uint _capacity,\n    string memory _originAddress,\n    string memory _destAddress,\n    uint _createdAt,\n    uint _confirmedAt,\n    uint _departAt\n  ) {\n    Ride storage ride = rides[rideNumber];\n    return (\n      ride.driver,\n      ride.drivingCost,\n      ride.capacity,\n      ride.originAddress,\n      ride.destAddress,\n      ride.createdAt,\n      ride.confirmedAt,\n      ride.departAt\n    );\n  }\n\n  function getRideCount() public view returns(uint) {\n    return rides.length;\n  }\n  \n  function passengerInRide(uint rideNumber, address passengerAcct) public returns (bool) {\n    Ride storage curRide = rides[rideNumber];\n    for(uint i = 0; i < curRide.passengerAccts.length; i++) {\n      if (curRide.passengerAccts[i] == passengerAcct) {\n        return true;\n      }\n    }\n    return false;\n  }\n  \n  function cancelRide(uint rideNumber) public {\n    Ride storage curRide = rides[rideNumber];\n    require(block.timestamp < curRide.confirmedAt);\n    if (msg.sender == curRide.driver) {\n      for (uint i = 0; i < curRide.passengerAccts.length; i++) {\n        address payable payable_addr = address(uint160(curRide.passengerAccts[i]));\n        payable_addr.transfer(curRide.passengers[curRide.passengerAccts[i]].price);\n      }\n    } else if (passengerInRide(rideNumber, msg.sender)) {\n      msg.sender.transfer(curRide.passengers[msg.sender].price);\n    }\n  }\n  \n  // called by passenger\n  function confirmDriverMet(uint rideNumber) public {\n    require(passengerInRide(rideNumber, msg.sender));\n    Ride storage curRide = rides[rideNumber];\n    if (keccak256(abi.encodePacked(curRide.passengers[msg.sender].state)) == keccak256(abi.encodePacked(\"passengersConfirmed\"))) {\n      curRide.passengers[msg.sender].state = \"enRoute\";\n    } else {\n      curRide.passengers[msg.sender].state = \"driverConfirmed\";\n    }\n  }\n  \n  // called by driver\n  function confirmPassengersMet(uint rideNumber, address[] memory passengerAddresses) public {\n    Ride storage curRide = rides[rideNumber];\n    require(msg.sender == curRide.driver);\n    for(uint i=0; i < passengerAddresses.length; i++) {\n      string memory curState = curRide.passengers[passengerAddresses[i]].state;\n      if (keccak256(abi.encodePacked(curRide.passengers[passengerAddresses[i]].state)) == keccak256(abi.encodePacked(\"driverConfirmed\"))) {\n        curRide.passengers[passengerAddresses[i]].state = \"enRoute\";\n      } else {\n        curRide.passengers[passengerAddresses[i]].state = \"passengersConfirmed\";\n      }\n    }\n    // require(rides[rideNumber].state == \"confirmed\");\n  }\n\n  function enRouteList(uint rideNumber) view public returns(address[]memory) {\n    Ride storage curRide = rides[rideNumber];\n    address[] memory addressesEnRoute = new address[](5);\n    uint count = 0;\n    for(uint i = 0; i < curRide.passengerAccts.length; i++) {\n      if (keccak256(abi.encodePacked(curRide.passengers[curRide.passengerAccts[i]].state)) == keccak256(abi.encodePacked(\"enRoute\"))) {\n        addressesEnRoute[count] = (curRide.passengerAccts[i]);\n        count++;\n      }\n    }\n  }\n  \n  // called by passenger\n  function arrived(uint rideNumber) public {\n    require(passengerInRide(rideNumber, msg.sender));\n    Ride storage curRide = rides[rideNumber];\n    address(uint160(curRide.driver)).transfer(curRide.passengers[msg.sender].price);\n    curRide.passengers[msg.sender].state = \"completion\";\n  }\n}\n",
  "sourcePath": "/home/swarnim/blockchain/CryptoRyder/contracts/Rideshare.sol",
  "compiler": {
    "name": "solc",
    "version": "0.5.16+commit.9c3226ce.Emscripten.clang"
  },
  "schemaVersion": "3.4.6",
  "updatedAt": "2022-04-11T04:18:57.524Z",
  "networkType": "ethereum",
  "devdoc": {
    "methods": {}
  },
  "userdoc": {
    "methods": {}
  }
}